:100000000C9462000C948A000C948A000C948A0070
:100010000C948A000C948A000C948A000C948A0038
:100020000C948A000C948A000C948A000C948A0028
:100030000C948A000C948A000C948A000C948A0018
:100040000C94B8030C948A000C9428040C940204B9
:100050000C948A000C948A000C948A000C948A00F8
:100060000C948A000C948A000000000023002600F3
:10007000290000000008000201000003040700003E
:1000800000000000000000000000250028002B00F8
:1000900000000000240027002A00040404040404D3
:1000A0000404020202020202030303030303010227
:1000B00004081020408001020408102001020408F6
:1000C00010205A0411241FBECFEFD8E0DEBFCDBFF1
:1000D00011E0A0E0B1E0EEEEF3E102C005900D9278
:1000E000A035B107D9F722E0A0E5B1E001C01D922B
:1000F000A933B207E1F710E0C2E6D0E004C02197CF
:10010000FE010E94F006C136D107C9F70E94A4047F
:100110000C94F5090C94000090E0FC01E255FF4FAF
:100120002491FC01E656FF4F8491882399F090E0DA
:10013000880F991FFC01E057FF4FA591B491FC0176
:10014000EA57FF4F859194918FB7F894EC91E22B89
:10015000EC938FBF0895833081F028F4813099F0BB
:100160008230A1F008958730A9F08830B9F084304A
:10017000D1F4809180008F7D03C0809180008F77C3
:1001800080938000089584B58F7702C084B58F7DF9
:1001900084BD08958091B0008F7703C08091B00036
:1001A0008F7D8093B00008951F93CF93DF93282F06
:1001B00030E0F901EE58FF4F8491F901E255FF4F0D
:1001C000D491F901E656FF4FC491CC23C1F0162F0C
:1001D00081110E94AB00EC2FF0E0EE0FFF1FEA57F9
:1001E000FF4FA591B4919FB7F894111104C08C9161
:1001F000D095D82302C0EC91DE2BDC939FBFDF911A
:10020000CF911F9108953FB7F8948091800190910C
:100210008101A0918201B091830126B5A89B05C000
:100220002F3F19F00196A11DB11D3FBFBA2FA92F75
:10023000982F8827820F911DA11DB11DBC01CD01F2
:1002400042E0660F771F881F991F4A95D1F70895DE
:10025000CF92DF92EF92FF920F931F93CF93DF9392
:100260006C017A018B01C0E0D0E0CE15DF0581F092
:10027000D8016D918D01D601ED91FC910190F08135
:10028000E02DC6010995892B11F02196EECF7E0154
:10029000C701DF91CF911F910F91FF90EF90DF90F9
:1002A000CF900895FC01538D448D252F30E0842F8D
:1002B00090E0821B930B541710F0CF96089501978E
:1002C0000895FC01918D828D981761F0828DDF0178
:1002D000A80FB11D5D968C91928D9F5F9F73928F39
:1002E00090E008958FEF9FEF0895FC01918D828D2E
:1002F000981731F0828DE80FF11D858D90E00895FB
:100300008FEF9FEF0895FC01918D228D892F90E052
:10031000805C9F4F821B91098F739927089584E811
:1003200091E00E94830121E0892B09F420E0822FD3
:100330000895FC01848DDF01A80FB11DA35ABF4FA2
:100340002C91848D90E001968F739927848FA689D4
:10035000B7892C93A089B1898C91837080648C9328
:10036000938D848D981306C00288F389E02D8081D7
:100370008F7D80830895EF92FF920F931F93CF9309
:10038000DF93EC0181E0888F9B8D8C8D981305C0E5
:10039000E889F989808185FD26C0F62E0B8D10E055
:1003A0000F5F1F4F0F731127E02E8C8DE8120CC0CA
:1003B0000FB607FCFACFE889F989808185FFF5CF70
:1003C000CE010E949901F1CF8B8DFE01E80FF11D46
:1003D000E35AFF4FF0829FB7F8940B8FEA89FB89AD
:1003E000808180620AC09FB7F894EE89FF8960839C
:1003F000E889F98980818370806480839FBF81E070
:1004000090E0DF91CF911F910F91FF90EF900895B1
:10041000CF93DF93EC01888D8823C9F0EA89FB89AB
:10042000808185FD05C0A889B9898C9186FD0FC0A2
:100430000FB607FCF5CF808185FFF2CFA889B98977
:100440008C9185FFEDCFCE010E949901E7CFDF911E
:10045000CF91089580E090E0892B29F00E948F01D0
:1004600081110C9400000895CF93DF93EC0160E0BC
:100470008E810E94D40061E08E810E94D40060E0F1
:100480008E810E94D4008BE891E00197F1F7DF9113
:10049000CF910895CF92DF92EF92FF920F931F9327
:1004A000CF93DF936C017C0187E0E80EF11CC0E084
:1004B000D0E0062F10E0B8010C2E02C075956795AC
:1004C0000A94E2F76170F70181917F010E94D400E4
:1004D0002196C430D10579F7C601DF91CF911F91E4
:1004E0000F91FF90EF90DF90CF900C943402CF9259
:1004F000DF92EF92FF920F931F93CF93DF93EC0164
:10050000F62E642F8C810E94D4008D818F3F19F0CC
:1005100060E00E94D4008F850F2D10E084FF25C07D
:100520006E0187E0C80ED11CE12CF12CB8010E2C15
:1005300002C0759567950A94E2F76170F6018191A2
:100540006F010E94D400FFEFEF1AFF0A88E0E8165F
:10055000F10461F7CE01DF91CF911F910F91FF90D0
:10056000EF90DF90CF900C943402B80184E0759541
:1005700067958A95E1F7CE010E944A026F2DCE0160
:10058000DF91CF911F910F91FF90EF90DF90CF906F
:100590000C944A0240E0682F81E292E00C947702CA
:1005A00081E00E94CA028BE39FE10197F1F7089571
:1005B000CF93DF93823028F090913002986090932F
:1005C0003002809334021092350280E48093360228
:1005D00080E18093370280E5809338028091250284
:1005E0000E948C00809126028F3F11F00E948C00A7
:1005F000809127020E948C00C1E2D2E09E0121522C
:1006000032408091300284FD03C084E090E002C05B
:1006100088E090E021962817390724F48E810E9403
:100620008C00ECCF8BE39DE00197F1F760E08091C7
:1006300025020E94D40060E0809127020E94D4002D
:10064000809126028F3F19F060E00E94D4008091D3
:10065000300284FD20C063E081E292E00E944A0201
:10066000CBE4D6E4CE010197F1F763E081E292E0BA
:100670000E944A022197F1F763E081E292E00E9432
:100680004A0283E592E00197F1F762E081E292E0AD
:100690000E944A0215C080620E94CA028BE496E45E
:1006A0000197F1F78091300280620E94CA0283E5CF
:1006B00092E00197F1F78091300280620E94CA02B5
:1006C0008091300280620E94CA0284E080933102ED
:1006D0008CE00E94CA020E94D00282E08093320223
:1006E00086E0DF91CF910C94CA0241E00E9477022C
:1006F00081E090E00895089580E090E008950097EB
:1007000069F0FC0101900020E9F73197AF01481B27
:10071000590BBC0181E292E00C94280180E090E04A
:1007200008950E94F606CF93DF93EC0160E571E037
:100730000E94FB06892BC9F0BE0180E591E00E9472
:1007400004070E94D002E1E0809134028111E0E0D0
:10075000E195F0E0EF5DFD4F848980680E94CA0258
:10076000CE01DF91CF910C947F03DF91CF9108955B
:100770001F920F920FB60F9211242F933F938F93D6
:100780009F93AF93BF9380917C0190917D01A09145
:100790007E01B0917F0130917B0123E0230F2D3743
:1007A00020F40196A11DB11D05C026E8230F029675
:1007B000A11DB11D20937B0180937C0190937D014D
:1007C000A0937E01B0937F0180918001909181017F
:1007D000A0918201B09183010196A11DB11D80936A
:1007E000800190938101A0938201B0938301BF9116
:1007F000AF919F918F913F912F910F900FBE0F90CE
:100800001F9018951F920F920FB60F9211242F93DD
:100810003F934F935F936F937F938F939F93AF9388
:10082000BF93EF93FF9384E891E00E949901FF91B9
:10083000EF91BF91AF919F918F917F916F915F9158
:100840004F913F912F910F900FBE0F901F901895D1
:100850001F920F920FB60F9211242F938F939F9395
:10086000EF93FF93E0919401F09195018081E091E5
:100870009A01F0919B0182FD12C0908180919D01AF
:100880008F5F8F7320919E01821751F0E0919D013F
:10089000F0E0EC57FE4F958F80939D0101C0808161
:1008A000FF91EF919F918F912F910F900FBE0F901D
:1008B0001F901895E4E8F1E01382128288EE93E02D
:1008C000A0E0B0E084839583A683B78386E091E0BF
:1008D0009183808385EC90E09587848784EC90E019
:1008E0009787868780EC90E0918B808B81EC90E0FD
:1008F000938B828B82EC90E0958B848B86EC90E0DE
:10090000978B868B118E128E138E148EE1E2F2E09D
:100910001382128288E191E09183808388E084834E
:100920008FEF858389E0868384E0878385E08087F5
:1009300086E0818787E0828713861486158616866F
:10094000178681E00C94D802CF93DF93CDB7DEB742
:1009500029970FB6F894DEBF0FBECDBF789484B54B
:10096000826084BD84B5816084BD85B5826085BDAB
:1009700085B5816085BD80916E00816080936E0039
:10098000109281008091810082608093810080912B
:1009900081008160809381008091800081608093DC
:1009A00080008091B10084608093B1008091B0009C
:1009B00081608093B00080917A00846080937A0097
:1009C00080917A00826080937A0080917A008160C1
:1009D00080937A0080917A00806880937A001092E8
:1009E000C100E0919401F091950182E08083E09153
:1009F0009001F09191011082E0919201F0919301A8
:100A00008FEC808310929C01E0919801F091990104
:100A100086E08083E0919601F0919701808180616A
:100A20008083E0919601F0919701808188608083B6
:100A3000E0919601F0919701808180688083E09138
:100A40009601F091970180818F7D80838DE00E94D7
:100A50008C0082E00E94D8020E94D002E1E08091E6
:100A600034028111E0E0E195F0E0EF5DFD4F848913
:100A70008D5F80680E94CA0280E291E00E947F033D
:100A8000E0913402E23010F4E15001C0E1E0F0E026
:100A9000EF5DFD4F84898F5F80680E94CA0289E202
:100AA00091E00E947F030E9403014B015C0134EF3F
:100AB000C32EDD24D394E12CF12C0E940301DC0130
:100AC000CB0188199909AA09BB09883E9340A10561
:100AD000B10598F301E0C01AD108E108F10818EE59
:100AE000810E13E0911EA11CB11CC114D104E104BC
:100AF000F10419F79CE3C92ED12CE12CF12C9E01B5
:100B00002F5F3F4F190128EE422E23E0522E612C19
:100B1000712C00910001109101010130110509F4BF
:100B200032C1F8F00330110509F035C140E44093BB
:100B30007C0080917A00806480937A0080917A00B2
:100B400086FDFCCF809178002091790090E0922B77
:100B50008B5292408B3E910508F019C100E010E0E5
:100B600016C18091730181113CC02FB7F894809118
:100B70007C0190917D01A0917E01B0917F012FBFFA
:100B800080935F0190936001A0936101B093620133
:100B90002FB7F89480917C0190917D01A0917E0106
:100BA000B0917F012FBF8093630190936401A09364
:100BB0006501B09366012FB7F89480917C01909104
:100BC0007D01A0917E01B0917F012FBF80936701CD
:100BD00090936801A0936901B0936A0151E050932A
:100BE00073012FB7F89480917C0190917D01A091C1
:100BF0007E01B0917F012FBF80935F0190936001D0
:100C0000A0936101B09362010091630110916401AE
:100C10002091650130916601AC01BD01401B510B73
:100C2000620B730B8A019B01083E134021053105BD
:100C300010F18093630190936401A0936501B093D8
:100C4000660100916701109168012091690130915E
:100C50006A01BC01CD01601B710B820B930BA301D8
:100C600092010E94CE0620936B0130936C01409359
:100C70006D0150936E0180916B0190916C01A09178
:100C80006D01B0916E0140916F01509170016091C2
:100C90007101709172018C019D01041B150B260BD3
:100CA000370B0A3011052105310570F180936F0172
:100CB00090937001A0937101B0937201EFE7F0E09F
:100CC0008491EBEBF0E00491E7EAF0E0149111235A
:100CD000A1F081110E94AB00E12FF0E0EE0FFF1FA9
:100CE000E859FF4FA591B4918C91082391E080E0E1
:100CF00009F490E0692F782F02C060E070E0F1E025
:100D00006F278DE00E94D40080906B0190906C0161
:100D1000A0906D01B0906E01C501B401A7019601CC
:100D20000E94CE067F936F93CA01B901A701960175
:100D30000E94CE067F936F93C501B40120E13EE08F
:100D400040E050E00E94CE06CA01B90128E130E03F
:100D500040E050E00E94CE067F936F9307E311E0DE
:100D60001F930F933F922F920E940B07C1010E9485
:100D7000930310920101109200010FB6F894DEBFA8
:100D80000FBECDBF08C086E491E00E94930310938C
:100D90000101009300010E942A02BBCEA1E21A2E9B
:100DA000AA1BBB1BFD010DC0AA1FBB1FEE1FFF1F0F
:100DB000A217B307E407F50720F0A21BB30BE40B5F
:100DC000F50B661F771F881F991F1A9469F76095A6
:100DD0007095809590959B01AC01BD01CF01089560
:100DE000EE0FFF1F0590F491E02D099481E090E053
:100DF000F8940C94F509FB01DC018D9101908019A8
:100E00000110D9F3990B0895FB01DC0101900D92BB
:100E10000020E1F70895AEE0B0E0E1E1F7E00C94E6
:100E2000CC090D891E8986E08C831A8309838FEF94
:100E30009FE79E838D83AE01475E5F4F6F89788DFC
:100E4000CE0101960E942D07EF81F885E00FF11F7A
:100E500010822E96E4E00C94E809ABE0B0E0E3E306
:100E6000F7E00C94BE096C017B018A01FC0117823A
:100E70001682838181FFCCC1CE0101963C01F6012F
:100E80009381F70193FD859193FF81917F018823E1
:100E900009F4BAC1853239F493FD859193FF8191AC
:100EA0007F01853229F4B60190E00E942409E7CF42
:100EB000912C212C312CFFE1F315D8F08B3279F0F5
:100EC00038F4803279F08332A1F4232D20611DC0E3
:100ED0008D3261F0803369F4232D216016C0832D9B
:100EE0008260382EE32DE4603E2E2AC0F32DF86098
:100EF0001DC037FC2DC020ED280F2A3040F08E3267
:100F0000B9F436FC81C1232D2064322E19C036FE7F
:100F100006C08AE0989E200D1124922E11C0EAE0AE
:100F20002E9E200D1124222EF32DF0623F2E08C09C
:100F30008C3621F4832D8068382E02C0883641F427
:100F4000F70193FD859193FF81917F018111B3CFCB
:100F5000982F9F7D9554933028F40C5F1F4F9FE38B
:100F600099830DC0833631F0833771F0833509F0F2
:100F700059C021C0F801808189830E5F1F4F8824EA
:100F80008394912C530113C02801F2E04F0E511CA1
:100F9000F801A080B18036FE03C0692D70E002C068
:100FA0006FEF7FEFC5010E9419094C018201F32DFB
:100FB000FF773F2E16C0280122E0420E511CF80197
:100FC000A080B18036FE03C0692D70E002C06FEFD3
:100FD0007FEFC5010E940E094C01F32DF0683F2EF2
:100FE000820133FC1BC0822D90E088169906B0F474
:100FF000B60180E290E00E9424092A94F4CFF50122
:1010000037FC859137FE81915F01B60190E00E9427
:10101000240921102A9421E0821A91088114910454
:1010200071F7E8C0843611F0893641F5F80137FED2
:1010300007C060817181828193810C5F1F4F08C05E
:1010400060817181072E000C880B990B0E5F1F4F7A
:10105000F32DFF763F2E97FF09C0909580957095F0
:1010600061957F4F8F4F9F4FF0683F2E2AE030E011
:10107000A3010E946009882E861845C0853731F487
:10108000232D2F7EB22E2AE030E025C0932D997FAC
:10109000B92E8F36C1F018F4883579F0B5C0803795
:1010A00019F0883721F0B0C0E92FE061BE2EB4FE00
:1010B0000DC0FB2DF460BF2E09C034FE0AC0292FDD
:1010C0002660B22E06C028E030E005C020E130E006
:1010D00002C020E132E0F801B7FE07C060817181F3
:1010E000828193810C5F1F4F06C06081718180E017
:1010F00090E00E5F1F4FA3010E946009882E8618A2
:10110000FB2DFF773F2E36FE0DC0232D2E7FA22E06
:10111000891458F434FE0BC032FC09C0832D8E7E36
:10112000A82E05C0B82CA32C03C0B82C01C0B92C24
:10113000A4FE0FC0FE01E80DF11D8081803321F473
:101140009A2D997EA92E09C0A2FE06C0B394B3942D
:1011500004C08A2D867809F0B394A3FC11C0A0FEC8
:1011600006C0B21488F4280C922C9B180EC0B2143E
:1011700060F4B60180E290E00E942409B394F7CFB6
:10118000B21418F42B1802C0982C212CA4FE10C005
:10119000B60180E390E00E942409A2FE17C0A1FCE2
:1011A00003C088E790E002C088E590E0B6010CC07B
:1011B0008A2D867859F0A1FE02C08BE201C080E240
:1011C000A7FC8DE2B60190E00E942409891438F44E
:1011D000B60180E390E00E9424099A94F7CF8A94A4
:1011E000F301E80DF11D8081B60190E00E94240911
:1011F0008110F5CF222009F442CEB60180E290E0C2
:101200000E9424092A94F6CFF6018681978102C0B4
:101210008FEF9FEF2B96E2E10C94DA09FC01059029
:10122000615070400110D8F7809590958E0F9F1FE8
:101230000895FC016150704001900110D8F780952D
:1012400090958E0F9F1F08950F931F93CF93DF9359
:10125000FB01238121FD03C08FEF9FEF2CC022FFF4
:1012600016C046815781248135814217530744F4C3
:10127000A081B1819D012F5F3F4F318320838C93EB
:10128000268137812F5F3F4F3783268314C08B0120
:10129000EC01FB010084F185E02D0995892BE1F635
:1012A000D80116968D919C911797019617969C934D
:1012B0008E931697CE01DF91CF911F910F910895D4
:1012C000FA01AA27283051F1203181F1E8946F9377
:1012D0006E7F6E5F7F4F8F4F9F4FAF4FB1E03ED01D
:1012E000B4E03CD0670F781F891F9A1FA11D680FBB
:1012F000791F8A1F911DA11D6A0F711D811D911DEE
:10130000A11D20D009F468943F912AE0269F112462
:101310003019305D3193DEF6CF010895462F4770C6
:10132000405D4193B3E00FD0C9F7F6CF462F4F7021
:10133000405D4A3318F0495D31FD4052419302D07F
:10134000A9F7EACFB4E0A695979587957795679525
:10135000BA95C9F700976105710508959B01AC0125
:101360000A2E06945795479537952795BA95C9F74C
:10137000620F731F841F951FA01D08952F923F9227
:101380004F925F926F927F928F929F92AF92BF9295
:10139000CF92DF92EF92FF920F931F93CF93DF9341
:1013A000CDB7DEB7CA1BDB0B0FB6F894DEBF0FBE9E
:1013B000CDBF09942A88398848885F846E847D84EB
:1013C0008C849B84AA84B984C884DF80EE80FD80ED
:1013D0000C811B81AA81B981CE0FD11D0FB6F89463
:0E13E000DEBF0FBECDBFED010895F894FFCF24
:1013EE00030000000000BB01280152010802830126
:1013FE006101750100000000750328017C037B0369
:10140E0045636F466C616D6100627920456C656362
:10141E0074726F2D415200253032693A253032698F
:10142E003A2530326900456E63656E64696F00005F
:00000001FF
